{
  "transactions": [
    {
      "hash": "0xa216be6892ace9e7e8b7cee64ac0fa27eb776b22e716527176300e9430d079a7",
      "transactionType": "CALL",
      "contractName": null,
      "contractAddress": "0x779877a7b0d9e8603169ddbd7836e478b4624789",
      "function": "transferAndCall(address,uint256,bytes)",
      "arguments": [
        "0x9DdfaCa8183c41ad55329BdeeD9F6A8d53168B1B",
        "3000000000000000000",
        "0x98814c0b53764ca0a42d8ebf4b293e6572cea162ac33d0070376e593455040e6"
      ],
      "transaction": {
        "from": "0x8301eb30c92b619bee4ec759e9b2c707efe6ecff",
        "to": "0x779877a7b0d9e8603169ddbd7836e478b4624789",
        "gas": "0x1c1ff",
        "value": "0x0",
        "input": "0x4000aea00000000000000000000000009ddfaca8183c41ad55329bdeed9f6a8d53168b1b00000000000000000000000000000000000000000000000029a2241af62c00000000000000000000000000000000000000000000000000000000000000000060000000000000000000000000000000000000000000000000000000000000002098814c0b53764ca0a42d8ebf4b293e6572cea162ac33d0070376e593455040e6",
        "nonce": "0x35",
        "chainId": "0xaa36a7"
      },
      "additionalContracts": [],
      "isFixedGasLimit": false
    }
  ],
  "receipts": [
    {
      "status": "0x1",
      "cumulativeGasUsed": "0x67ade7",
      "logs": [
        {
          "address": "0x779877a7b0d9e8603169ddbd7836e478b4624789",
          "topics": [
            "0xddf252ad1be2c89b69c2b068fc378daa952ba7f163c4a11628f55a4df523b3ef",
            "0x0000000000000000000000008301eb30c92b619bee4ec759e9b2c707efe6ecff",
            "0x0000000000000000000000009ddfaca8183c41ad55329bdeed9f6a8d53168b1b"
          ],
          "data": "0x00000000000000000000000000000000000000000000000029a2241af62c0000",
          "blockHash": "0x9914b40e7798648f5e239ba50fc7a395939f43031f75361463557db3d786ebd5",
          "blockNumber": "0x955ffb",
          "blockTimestamp": "0x69359748",
          "transactionHash": "0xa216be6892ace9e7e8b7cee64ac0fa27eb776b22e716527176300e9430d079a7",
          "transactionIndex": "0x39",
          "logIndex": "0x7d",
          "removed": false
        },
        {
          "address": "0x779877a7b0d9e8603169ddbd7836e478b4624789",
          "topics": [
            "0xe19260aff97b920c7df27010903aeb9c8d2be5d310a2c67824cf3f15396e4c16",
            "0x0000000000000000000000008301eb30c92b619bee4ec759e9b2c707efe6ecff",
            "0x0000000000000000000000009ddfaca8183c41ad55329bdeed9f6a8d53168b1b"
          ],
          "data": "0x00000000000000000000000000000000000000000000000029a2241af62c00000000000000000000000000000000000000000000000000000000000000000040000000000000000000000000000000000000000000000000000000000000002098814c0b53764ca0a42d8ebf4b293e6572cea162ac33d0070376e593455040e6",
          "blockHash": "0x9914b40e7798648f5e239ba50fc7a395939f43031f75361463557db3d786ebd5",
          "blockNumber": "0x955ffb",
          "blockTimestamp": "0x69359748",
          "transactionHash": "0xa216be6892ace9e7e8b7cee64ac0fa27eb776b22e716527176300e9430d079a7",
          "transactionIndex": "0x39",
          "logIndex": "0x7e",
          "removed": false
        },
        {
          "address": "0x9ddfaca8183c41ad55329bdeed9f6a8d53168b1b",
          "topics": [
            "0x1ced9348ff549fceab2ac57cd3a9de38edaaab274b725ee82c23e8fc8c4eec7a",
            "0x98814c0b53764ca0a42d8ebf4b293e6572cea162ac33d0070376e593455040e6"
          ],
          "data": "0x000000000000000000000000000000000000000000000000000000000000000000000000000000000000000000000000000000000000000029a2241af62c0000",
          "blockHash": "0x9914b40e7798648f5e239ba50fc7a395939f43031f75361463557db3d786ebd5",
          "blockNumber": "0x955ffb",
          "blockTimestamp": "0x69359748",
          "transactionHash": "0xa216be6892ace9e7e8b7cee64ac0fa27eb776b22e716527176300e9430d079a7",
          "transactionIndex": "0x39",
          "logIndex": "0x7f",
          "removed": false
        }
      ],
      "logsBloom": "0x00000004000000000000000000000000000000000020000000000000020000000000000000000000000000000000000000000000000002000000000000000000000000000000000000000008000000000000000000000000000020000020000008000000000000000000000000000000000000000000000000000010000040000000000000000000000000010000800000000020000000000004200000000000000000000000000000004000010000000000000000000000000004000000000000000002000000000000000000000000000000000000000100000000000000000010000000000000800000000001000000000000000000000000000001000000",
      "type": "0x2",
      "transactionHash": "0xa216be6892ace9e7e8b7cee64ac0fa27eb776b22e716527176300e9430d079a7",
      "transactionIndex": "0x39",
      "blockHash": "0x9914b40e7798648f5e239ba50fc7a395939f43031f75361463557db3d786ebd5",
      "blockNumber": "0x955ffb",
      "gasUsed": "0x133b1",
      "effectiveGasPrice": "0xf8e0a",
      "from": "0x8301eb30c92b619bee4ec759e9b2c707efe6ecff",
      "to": "0x779877a7b0d9e8603169ddbd7836e478b4624789",
      "contractAddress": null
    }
  ],
  "libraries": [],
  "pending": [],
  "returns": {},
  "timestamp": 1765119817863,
  "chain": 11155111,
  "commit": "88a8524"
}