{
  "transactions": [
    {
      "hash": "0xb828aed3b4bdcf73f1d4339dedf2eb23d7c5f4493307721e805340abaee57c3d",
      "transactionType": "CALL",
      "contractName": null,
      "contractAddress": "0x779877a7b0d9e8603169ddbd7836e478b4624789",
      "function": "transferAndCall(address,uint256,bytes)",
      "arguments": [
        "0x9DdfaCa8183c41ad55329BdeeD9F6A8d53168B1B",
        "3000000000000000000",
        "0xf67bcf884da5767defd2231411d971977e24173ee17d8c6296b28fe312ddc21c"
      ],
      "transaction": {
        "from": "0x8301eb30c92b619bee4ec759e9b2c707efe6ecff",
        "to": "0x779877a7b0d9e8603169ddbd7836e478b4624789",
        "gas": "0x1c1ff",
        "value": "0x0",
        "input": "0x4000aea00000000000000000000000009ddfaca8183c41ad55329bdeed9f6a8d53168b1b00000000000000000000000000000000000000000000000029a2241af62c000000000000000000000000000000000000000000000000000000000000000000600000000000000000000000000000000000000000000000000000000000000020f67bcf884da5767defd2231411d971977e24173ee17d8c6296b28fe312ddc21c",
        "nonce": "0x39",
        "chainId": "0xaa36a7"
      },
      "additionalContracts": [],
      "isFixedGasLimit": false
    }
  ],
  "receipts": [
    {
      "status": "0x1",
      "cumulativeGasUsed": "0xbb265e",
      "logs": [
        {
          "address": "0x779877a7b0d9e8603169ddbd7836e478b4624789",
          "topics": [
            "0xddf252ad1be2c89b69c2b068fc378daa952ba7f163c4a11628f55a4df523b3ef",
            "0x0000000000000000000000008301eb30c92b619bee4ec759e9b2c707efe6ecff",
            "0x0000000000000000000000009ddfaca8183c41ad55329bdeed9f6a8d53168b1b"
          ],
          "data": "0x00000000000000000000000000000000000000000000000029a2241af62c0000",
          "blockHash": "0x3321a0cf5d245fd53234019883061be7fbfd9123d872a997bb78290a41753b14",
          "blockNumber": "0x95986d",
          "blockTimestamp": "0x6938463c",
          "transactionHash": "0xb828aed3b4bdcf73f1d4339dedf2eb23d7c5f4493307721e805340abaee57c3d",
          "transactionIndex": "0x66",
          "logIndex": "0x55",
          "removed": false
        },
        {
          "address": "0x779877a7b0d9e8603169ddbd7836e478b4624789",
          "topics": [
            "0xe19260aff97b920c7df27010903aeb9c8d2be5d310a2c67824cf3f15396e4c16",
            "0x0000000000000000000000008301eb30c92b619bee4ec759e9b2c707efe6ecff",
            "0x0000000000000000000000009ddfaca8183c41ad55329bdeed9f6a8d53168b1b"
          ],
          "data": "0x00000000000000000000000000000000000000000000000029a2241af62c000000000000000000000000000000000000000000000000000000000000000000400000000000000000000000000000000000000000000000000000000000000020f67bcf884da5767defd2231411d971977e24173ee17d8c6296b28fe312ddc21c",
          "blockHash": "0x3321a0cf5d245fd53234019883061be7fbfd9123d872a997bb78290a41753b14",
          "blockNumber": "0x95986d",
          "blockTimestamp": "0x6938463c",
          "transactionHash": "0xb828aed3b4bdcf73f1d4339dedf2eb23d7c5f4493307721e805340abaee57c3d",
          "transactionIndex": "0x66",
          "logIndex": "0x56",
          "removed": false
        },
        {
          "address": "0x9ddfaca8183c41ad55329bdeed9f6a8d53168b1b",
          "topics": [
            "0x1ced9348ff549fceab2ac57cd3a9de38edaaab274b725ee82c23e8fc8c4eec7a",
            "0xf67bcf884da5767defd2231411d971977e24173ee17d8c6296b28fe312ddc21c"
          ],
          "data": "0x000000000000000000000000000000000000000000000000000000000000000000000000000000000000000000000000000000000000000029a2241af62c0000",
          "blockHash": "0x3321a0cf5d245fd53234019883061be7fbfd9123d872a997bb78290a41753b14",
          "blockNumber": "0x95986d",
          "blockTimestamp": "0x6938463c",
          "transactionHash": "0xb828aed3b4bdcf73f1d4339dedf2eb23d7c5f4493307721e805340abaee57c3d",
          "transactionIndex": "0x66",
          "logIndex": "0x57",
          "removed": false
        }
      ],
      "logsBloom": "0x0000000400000000000000000000000000000000002000000000000002000000000000000000000000000000000000000000000000000000000000000000000000000000000000000000000c000000000000000000000000000020000020000008000000000000000000000000000000000000000000000000000010000040000000000000000000000000010000800000000020000000000000200000000000100000000000000000004001010000000000000000000000000004000000000000000002000000000000000000000000000000000000000100000000000000000010000000000000800000000001000000000000000000000000000000000000",
      "type": "0x2",
      "transactionHash": "0xb828aed3b4bdcf73f1d4339dedf2eb23d7c5f4493307721e805340abaee57c3d",
      "transactionIndex": "0x66",
      "blockHash": "0x3321a0cf5d245fd53234019883061be7fbfd9123d872a997bb78290a41753b14",
      "blockNumber": "0x95986d",
      "gasUsed": "0x133b1",
      "effectiveGasPrice": "0xa841",
      "from": "0x8301eb30c92b619bee4ec759e9b2c707efe6ecff",
      "to": "0x779877a7b0d9e8603169ddbd7836e478b4624789",
      "contractAddress": null
    }
  ],
  "libraries": [],
  "pending": [],
  "returns": {},
  "timestamp": 1765295677230,
  "chain": 11155111,
  "commit": "79d01ea"
}