{
  "transactions": [
    {
      "hash": "0xe6834ad4d28fbb4c769d097f386b2bc886033e4adaca901aca6b0d0ade4bc664",
      "transactionType": "CALL",
      "contractName": null,
      "contractAddress": "0x779877a7b0d9e8603169ddbd7836e478b4624789",
      "function": "transferAndCall(address,uint256,bytes)",
      "arguments": [
        "0x9DdfaCa8183c41ad55329BdeeD9F6A8d53168B1B",
        "3000000000000000000",
        "0x98814c0b53764ca0a42d8ebf4b293e6572cea162ac33d0070376e593455040e6"
      ],
      "transaction": {
        "from": "0x8301eb30c92b619bee4ec759e9b2c707efe6ecff",
        "to": "0x779877a7b0d9e8603169ddbd7836e478b4624789",
        "gas": "0x14cbb",
        "value": "0x0",
        "input": "0x4000aea00000000000000000000000009ddfaca8183c41ad55329bdeed9f6a8d53168b1b00000000000000000000000000000000000000000000000029a2241af62c00000000000000000000000000000000000000000000000000000000000000000060000000000000000000000000000000000000000000000000000000000000002098814c0b53764ca0a42d8ebf4b293e6572cea162ac33d0070376e593455040e6",
        "nonce": "0x36",
        "chainId": "0xaa36a7"
      },
      "additionalContracts": [],
      "isFixedGasLimit": false
    }
  ],
  "receipts": [
    {
      "status": "0x1",
      "cumulativeGasUsed": "0x635c2f",
      "logs": [
        {
          "address": "0x779877a7b0d9e8603169ddbd7836e478b4624789",
          "topics": [
            "0xddf252ad1be2c89b69c2b068fc378daa952ba7f163c4a11628f55a4df523b3ef",
            "0x0000000000000000000000008301eb30c92b619bee4ec759e9b2c707efe6ecff",
            "0x0000000000000000000000009ddfaca8183c41ad55329bdeed9f6a8d53168b1b"
          ],
          "data": "0x00000000000000000000000000000000000000000000000029a2241af62c0000",
          "blockHash": "0x6255c8eff39af6fd44c241442c3b22f42d67b25be6dd98f7e029aaacd1b7e905",
          "blockNumber": "0x956009",
          "blockTimestamp": "0x693597f0",
          "transactionHash": "0xe6834ad4d28fbb4c769d097f386b2bc886033e4adaca901aca6b0d0ade4bc664",
          "transactionIndex": "0x2e",
          "logIndex": "0x7b",
          "removed": false
        },
        {
          "address": "0x779877a7b0d9e8603169ddbd7836e478b4624789",
          "topics": [
            "0xe19260aff97b920c7df27010903aeb9c8d2be5d310a2c67824cf3f15396e4c16",
            "0x0000000000000000000000008301eb30c92b619bee4ec759e9b2c707efe6ecff",
            "0x0000000000000000000000009ddfaca8183c41ad55329bdeed9f6a8d53168b1b"
          ],
          "data": "0x00000000000000000000000000000000000000000000000029a2241af62c00000000000000000000000000000000000000000000000000000000000000000040000000000000000000000000000000000000000000000000000000000000002098814c0b53764ca0a42d8ebf4b293e6572cea162ac33d0070376e593455040e6",
          "blockHash": "0x6255c8eff39af6fd44c241442c3b22f42d67b25be6dd98f7e029aaacd1b7e905",
          "blockNumber": "0x956009",
          "blockTimestamp": "0x693597f0",
          "transactionHash": "0xe6834ad4d28fbb4c769d097f386b2bc886033e4adaca901aca6b0d0ade4bc664",
          "transactionIndex": "0x2e",
          "logIndex": "0x7c",
          "removed": false
        },
        {
          "address": "0x9ddfaca8183c41ad55329bdeed9f6a8d53168b1b",
          "topics": [
            "0x1ced9348ff549fceab2ac57cd3a9de38edaaab274b725ee82c23e8fc8c4eec7a",
            "0x98814c0b53764ca0a42d8ebf4b293e6572cea162ac33d0070376e593455040e6"
          ],
          "data": "0x00000000000000000000000000000000000000000000000029a2241af62c000000000000000000000000000000000000000000000000000053444835ec580000",
          "blockHash": "0x6255c8eff39af6fd44c241442c3b22f42d67b25be6dd98f7e029aaacd1b7e905",
          "blockNumber": "0x956009",
          "blockTimestamp": "0x693597f0",
          "transactionHash": "0xe6834ad4d28fbb4c769d097f386b2bc886033e4adaca901aca6b0d0ade4bc664",
          "transactionIndex": "0x2e",
          "logIndex": "0x7d",
          "removed": false
        }
      ],
      "logsBloom": "0x00000004000000000000000000000000000000000020000000000000020000000000000000000000000000000000000000000000000002000000000000000000000000000000000000000008000000000000000000000000000020000020000008000000000000000000000000000000000000000000000000000010000040000000000000000000000000010000800000000020000000000004200000000000000000000000000000004000010000000000000000000000000004000000000000000002000000000000000000000000000000000000000100000000000000000010000000000000800000000001000000000000000000000000000001000000",
      "type": "0x2",
      "transactionHash": "0xe6834ad4d28fbb4c769d097f386b2bc886033e4adaca901aca6b0d0ade4bc664",
      "transactionIndex": "0x2e",
      "blockHash": "0x6255c8eff39af6fd44c241442c3b22f42d67b25be6dd98f7e029aaacd1b7e905",
      "blockNumber": "0x956009",
      "gasUsed": "0xf0e5",
      "effectiveGasPrice": "0xf7e63",
      "from": "0x8301eb30c92b619bee4ec759e9b2c707efe6ecff",
      "to": "0x779877a7b0d9e8603169ddbd7836e478b4624789",
      "contractAddress": null
    }
  ],
  "libraries": [],
  "pending": [],
  "returns": {},
  "timestamp": 1765119985952,
  "chain": 11155111,
  "commit": "88a8524"
}